:020000040800F2
:1000000038070020CD010008030B00087304000826
:10001000010B00087D020008D9170008000000004D
:10002000000000000000000000000000AF0E00080B
:100030007F02000800000000190B0008810F000873
:10004000E7010008E7010008E7010008E7010008F0
:10005000E7010008E7010008E7010008E7010008E0
:10006000E7010008E7010008E7010008E7010008D0
:10007000E7010008E7010008E7010008E7010008C0
:10008000E7010008E7010008E7010008E7010008B0
:10009000E7010008E7010008E7010008E7010008A0
:1000A000E7010008E7010008E7010008E701000890
:1000B000B9110008E7010008C9110008E7010008AC
:1000C000E7010008E7010008E7010008E701000870
:1000D000E701000829170008E7010008E701000808
:1000E000E7010008E7010008E7010008E701000850
:1000F000E7010008E7010008E7010008E701000840
:10010000E7010008E7010008E7010008E70100082F
:10011000E7010008E7010008E7010008E70100081F
:10012000E7010008E7010008E7010008E70100080F
:1001300000F002F800F03AF80AA090E8000C8244BF
:100140008344AAF10107DA4501D100F02FF8AFF29C
:10015000090EBAE80F0013F0010F18BFFB1A43F0A5
:10016000010318471839000038390000103A24BF3D
:1001700078C878C1FAD8520724BF30C830C144BF0C
:1001800004680C607047000000230024002500264E
:10019000103A28BF78C1FBD8520728BF30C148BFEA
:1001A0000B6070471FB51FBD10B510BD00F033F8D0
:1001B0001146FFF7F7FF02F05FF800F051F803B4C3
:1001C000FFF7F2FF03BC01F008FB0000094880477D
:1001D00009480047FEE7FEE7FEE7FEE7FEE7FEE729
:1001E000FEE7FEE7FEE7FEE704480549054A064B41
:1001F00070470000850F0008310100083801002019
:10020000380700203803002038030020704770476B
:10021000704770477047754600F02CF8AE460500F1
:100220006946534620F00700854618B020B5FFF711
:10023000DBFFBDE820404FF000064FF000074FF015
:1002400000084FF0000B21F00701AC46ACE8C009F4
:10025000ACE8C009ACE8C009ACE8C0098D467047FD
:1002600010B50446AFF300802046BDE81040FFF70C
:10027000A6BF000000487047D8000020FEE7704786
:1002800010B52E49884209D10121042000F070FCEC
:100290000021BDE81040042000F06ABC28498842D3
:1002A00009D10121082000F063FC0021BDE81040C5
:1002B000082000F05DBC2349884209D101211020AB
:1002C00000F056FC0021BDE81040102000F050BCAA
:1002D0001D49884209D10121202000F049FC00215C
:1002E000BDE81040202000F043BC1849884209D1E5
:1002F0000121402000F03CFC0021BDE810404020DE
:1003000000F036BC1249884209D10121802000F05A
:100310002FFC0021BDE81040802000F029BC0D49D1
:1003200088420AD184150121204600F021FC204694
:10033000BDE81040002100F01BBC10BD00080140CA
:10034000000C014000100140001401400018014061
:10035000001C0140002001402DE9F0410022CC7832
:1003600004F00F03E40601D58C7823430C784FF09A
:100370000F0714F0FF0F4FF0010C1CD005680CFAAA
:1003800002F40E882640A64211D1960007FA06F81C
:1003900025EA080503FA06F848EA0505CE78282E6E
:1003A00002D0482E02D002E0446100E00461521CF9
:1003B000082AE4D305600A88FF2A1ED9456800226E
:1003C00002F108060CFA06F40E882640A64210D167
:1003D000960007FA06F825EA080503FA06F848EA3F
:1003E0000505CE78282E00D14461CE78482E00D164
:1003F0000461521C082AE3D34560BDE8F081000087
:10040000F0B5154C002801DAE36900E06368C0F339
:100410000346420D120185B2C0F301579540032FE8
:1004200007D0C2020CD50322B240934343F070625E
:1004300009E023F07062636823F07063636002E098
:10044000AB4343F0706201B12A43002801DAE26154
:10045000F0BD6260F0BD00000000014002460020D7
:1004600092680A4200D001207047416170470161E3
:100470007047FEE738B50121502000F06BFB60208B
:10048000ADF8000028208DF803000D4C6946204689
:10049000FFF762FF0121ADF8001069460948FFF738
:1004A0005BFF1C21ADF8001010218DF80310032113
:1004B0008DF8021069462046FFF74EFF38BD000058
:1004C00000180140001001402DE9F04107460024CA
:1004D0000C4E002108467388328800F0D7F9358821
:1004E000708845430021084600F0A4F900F0DEFAC8
:1004F00003E0384600F088FA641CAC42F9D3BDE84A
:10050000F0810000C80000202DE9F0410026802184
:10051000A0222C232D4D2E4C4FF02A0C4FF02B08EF
:1005200000281BD0012827D00127022832D0032819
:100530003ED0A671218062802381A4F80AC0A4F86D
:100540000C80C021362000F0B7FA2E706388228814
:10055000BDE8F0410021084600F098B9A67121805D
:1005600062802381A4F80AC0A4F80C80C021362040
:1005700000F0A2FA2E70E9E7A67121806280238143
:10058000A4F80AC0A4F80C804021362000F094FAA8
:100590002E70DBE7A771228061802381A4F80AC056
:1005A000A4F80C80A021362000F086FA2F70CDE749
:1005B000A771228061802381A4F80AC0A4F80C806E
:1005C0006021362000F078FA2F70BFE7420000204B
:1005D000C800002010B5144600F02CF9044800892A
:1005E00000F04AFA2046BDE8104000F00DBA0000C5
:1005F000C8000020F8B50121182000F0ABFA41F244
:100600000200ADF8000003258DF8025010248DF88B
:1006100003400B4E69463046FFF79EFE2021ADF8A1
:1006200000108DF802508DF8034069460548FFF729
:1006300093FE00F09FFB02213046FFF718FFF8BD44
:10064000000C01400010014010B5FFF7D3FF00F08F
:10065000D1F9112000F010FA782001F0DDF8B12076
:1006600000F00AFA052000F0EDF93C2000F0EAF96C
:100670003C2000F0E7F9B22000F0FEF9052000F080
:10068000E1F93C2000F0DEF93C2000F0DBF9B3207A
:1006900000F0F2F9052000F0D5F93C2000F0D2F985
:1006A0003C2000F0CFF9052000F0CCF93C2000F010
:1006B000C9F93C2000F0C6F9B42000F0DDF90320B0
:1006C00000F0C0F9C02000F0D7F9282000F0BAF9F6
:1006D000082000F0B7F9042000F0B4F9C12000F0C0
:1006E000CBF9C02000F0AEF9C22000F0C5F90D2012
:1006F00000F0A8F9002000F0A5F9C32000F0BCF933
:100700008D2000F09FF92A2000F09CF9C42000F011
:10071000B3F98D2000F096F9EE2000F093F9C52092
:1007200000F0AAF91A2000F08DF9362000F0A4F9A3
:10073000C02000F087F9E02000F09EF9042000F0CE
:1007400081F9222000F07EF9072000F07BF90A20D1
:1007500000F078F92E2000F075F9302000F072F9E1
:10076000252000F06FF92A2000F06CF9282000F015
:1007700069F9262000F066F92E2000F063F93A208E
:1007800000F060F9002000F05DF9012000F05AF956
:10079000032000F057F9132000F054F9E12000F095
:1007A0006BF9042000F04EF9162000F04BF90620FA
:1007B00000F048F90D2000F045F92D2000F042F935
:1007C000262000F03FF9232000F03CF9272000F01C
:1007D00039F9272000F036F9252000F033F92D20D3
:1007E00000F030F93B2000F02DF9002000F02AF94C
:1007F000012000F027F9042000F024F9132000F074
:1008000021F93A2000F038F9052000F01BF92920E1
:1008100000F032F90020FFF777FE02210448FFF7CD
:1008200026FEBDE810404FF6FF70FFF74DBE0000FA
:10083000000C014070B506460D461248124C017876
:10084000608900290ED000F017F9761CB0B200F0D4
:10085000DBF8A08900F010F9AD1CA8B2BDE870402B
:1008600000F0D2B800F008F9B61CB0B200F0CCF835
:10087000A08900F001F96D1CA8B2BDE8704000F03D
:10088000C3B8000042000020C80000202DE9F0415C
:1008900004460D46A018401E86B2E818401E87B2D6
:1008A0001B48DFF870800178B8F80A00002917D0DB
:1008B00000F0E2F8641CA0B200F0A6F8761CB0B21A
:1008C00000F0A2F8B8F80C0000F0D6F8AD1CA8B201
:1008D00000F09AF8BF1CB8B2BDE8F04100F094B83F
:1008E00000F0CAF8A41CA0B200F08EF8B61CB0B29A
:1008F00000F08AF8B8F80C0000F0BEF86D1CA8B241
:1009000000F082F87F1CB8B2BDE8F04100F07CB87E
:1009100042000020C80000202DE9F84F82460C4616
:100920001F46A346780701D0012000E0002000EB1D
:10093000D70079084843C0B20090203A02F0FF097E
:10094000002648E00C2F13D0102F18D0182F45D1B7
:10095000234909EBC90001EB8000855D4FF00008D9
:10096000280611D5214650460A9AFFF733FE13E0B8
:100970001C4909EB490001EB8000855DEEE71A4850
:1009800000EB0910855DE9E70B9828B91748214667
:1009900082885046FFF71EFE6806050E641CA4B24E
:1009A00013484088A04219D9A4EB0B00B84209D1E2
:1009B0005C460AF1010A1FFA8AFA0D480088504580
:1009C0000CD906E008F1010808F0FF08B8F1080F9B
:1009D000C6D3761CF6B200988642B3D3BDE8F88F32
:1009E000202D0008BC22000830270008420000200B
:1009F000C800002010B5012000F03EF8BDE810400E
:100A0000322000F009BF000070B504460B4E4FF4D1
:100A1000805529463046FFF728FD20210848FFF77A
:100A200026FD200A00F0F6F9E0B200F0F3F92946BD
:100A30003046BDE87040FFF71ABD0000000C0140D1
:100A40000010014070B50646094D4FF48054214610
:100A50002846FFF70AFD20210648FFF708FD30462B
:100A600000F0D8F921462846BDE87040FFF7FFBCEA
:100A7000000C01400010014070B50446094E4FF4CF
:100A8000805529463046FFF7F0FC20210648FFF745
:100A9000ECFCE0B200F0BEF929463046BDE87040FB
:100AA000FFF7E5BC000C014000100140014800893F
:100AB000FFF7E2BFC800002010B50C46FFF7DCFFCF
:100AC000E0B2BDE81040FFF7BDBF000038B501211E
:100AD000042000F03FF80220ADF8000010208DF84F
:100AE000030003208DF80200044C69462046FFF7FE
:100AF00033FC02212046FFF7BAFC38BD0008014054
:100B0000FEE7704702490843024908607047000049
:100B10000000FA050CED00E070470000054A0029CE
:100B200003D0D1690143D1617047D1698143D1615B
:100B30007047000000100240054A002903D01169E7
:100B400001431161704711698143116170470000D1
:100B500000100240054A002903D0916901439161C8
:100B60007047916981439161704700000010024015
:100B7000054A002903D0D1680143D1607047D1688C
:100B80008143D16070470000001002400C480168AA
:100B900041F00101016041680A4A11404160016869
:100BA000094A11400160016821F480210160416817
:100BB00021F4FE0141604FF41F0181607047000085
:100BC000001002400000FFF8FFFFF6FE0346002081
:100BD0005909094A01290AD002290AD0516A03F0A9
:100BE0001F02012393400B4200D00120704711687F
:100BF000F5E7116AF3E70000001002400248406880
:100C000000F00C007047000000100240034A5168D9
:100C100021F0F001014351607047000000100240D4
:100C20000C490A6822F480320A600A6822F48022A1
:100C30000A60B0F5803F07D0B0F5802F03D1086877
:100C400040F4A02008607047086840F480300860D5
:100C50007047000000100240034A516821F4E0612F
:100C6000014351607047000000100240034A516880
:100C700021F4605141EAC00050607047001002400A
:100C8000014908667047000000004242034B5A6861
:100C900022F47C1208431043586070470010024051
:100CA000034A516821F0030101435160704700007D
:100CB0000010024018B5002000904FF4A0643120CD
:100CC000FFF784FF0099491C00910099A14201D0CF
:100CD0000028F4D03120FFF779FF08B1012018BDBA
:100CE000002018BD10B5FFF751FF4FF480342046A7
:100CF000FFF796FFFFF7DEFF01281CD10020FFF76A
:100D000085FF0020FFF7B2FFA011FFF7A5FF4FF40A
:100D1000E0112046FFF7BAFF0120FFF7B1FF3920AD
:100D2000FFF754FF0028FAD00220FFF7B9FFFFF7C2
:100D300065FF0828FBD110BD4FF08042B2F92400B6
:100D4000034908608B6818448860002090847047CD
:100D50002C000020054AB2F9000005494860CB6824
:100D60001844C8600020108070470000240800402C
:100D70002C00002010B586B001211820FFF7EAFEF4
:100D800001210920FFF7E6FE4FF46040ADF81400A2
:100D900003208DF8160018208DF8170005A91B48B0
:100DA000FFF7DAFA01218C032046FFF7B7FE012195
:100DB0002046FFF7C1FE00212046FFF7BDFE0020C0
:100DC000ADF800004FF48271ADF80210ADF80400E8
:100DD0000221ADF806100121ADF808104902ADF866
:100DE0000A10ADF80C00ADF80E000720ADF81000A9
:100DF000074C6946204600F03EF80121204600F0ED
:100E000023F8FF2000F006F806B010BD000C0140EA
:100E10000038004070B505460A4C0221204600F01B
:100E20001FF80028F9D02946204600F022F80121B9
:100E3000204600F015F80028F9D0204600F017F8F9
:100E4000C0B270BD00380040002904D0018841F0D4
:100E5000400101807047018821F040010180704706
:100E60000246002012890A4200D001207047808982
:100E700070478181704730B5028802F441530A8877
:100E80004C88CD8822438C882C4322430C892243F2
:100E90004C8922438C892243CC8922431A43028005
:100EA000828B22F400628283098A018230BD7047FE
:100EB000AFF300800CB50022019200922748016830
:100EC00041F4803101604FF4A063016801F4003106
:100ED00000910199491C0191009911B90199994218
:100EE000F3D10168890302D50121009100E000924D
:100EF0000099012930D11A490A6842F010020A60AB
:100F00000A6822F003020A600A6842F002020A60DC
:100F10004168416041684160416841F480614160DD
:100F2000416821F47C114160416841F4E81141605D
:100F3000016841F08071016001688901FCD5416858
:100F400021F003014160416841F0020141604168C4
:100F5000C1F381010229FAD10CBD0000001002404A
:100F6000002002404FF0E021042804D0086920F05E
:100F7000040008617047086940F004000861704788
:100F80007047000010B50F48016841F00101016091
:100F900041680D4A1140416001680C4A11400160EE
:100FA000016821F480210160416821F4FE01416063
:100FB0004FF41F018160FFF77BFF05494FF0006090
:100FC000086010BD001002400000FFF8FFFFF6FEB1
:100FD00008ED00E070B5048C24F001040484058B56
:100FE000048C25F0F3054FF6FF7606EA031313434E
:100FF0002B43104A90420ED00F4A90420BD0B0F1D2
:10100000804F08D00D4A904205D00D4A904202D040
:101010000C4A904205D124F002020A4342F0010139
:1010200004E024F00A020A4342F001010383018430
:1010300070BD0000002C014000340140000400405D
:1010400000080040000C0040F0B5048C24F01004AF
:101050000484068B048C4FF6FF7505EA011726F40D
:10106000734605EA0333334305EA02221A43104B61
:1010700098420ED00F4B98420BD0B0F1804F08D061
:101080000D4B984205D00D4B984202D00C4B984224
:1010900005D124F02001394341F0100104E024F08F
:1010A000A0030B4343F0100102830184F0BD000054
:1010B000002C0140003401400004004000080040C2
:1010C000000C0040F0B5048C24F480740484858BFB
:1010D000048C4FF6FF7707EA012625F0F30507EAAF
:1010E000031313432B43104A90420ED00F4A9042F1
:1010F0000BD0B0F1804F08D00D4A904205D00D4A78
:10110000904202D00C4A904205D124F40071314340
:1011100041F4807104E024F420620A4342F48071B7
:1011200083830184F0BD0000002C014000340140A5
:101130000004004000080040000C0040F0B5048CA2
:1011400024F480540484868B048C4FF6FF7505EAE2
:10115000013726F4734605EA0222324305EA0333D7
:101160001343104A90420ED00F4A90420BD0B0F178
:10117000804F08D00D4A904205D00D4A904202D0CF
:101180000C4A904205D124F40051394341F4805176
:1011900004E024F402420A4342F480518383018430
:1011A000F0BD0000002C014000340140000400406C
:1011B00000080040000C00404FF08040018A018A86
:1011C00021F001010182704703480188018821F064
:1011D00001010180704700001004004010B588B084
:1011E00001210D20FFF7B6FC01212848FFF708F97F
:1011F00001212748FFF704F9264C2046FFF740F865
:1012000004218DF81F104903ADF81C1007A92046D2
:10121000FFF7A2F80820ADF81C0007A91E48FFF749
:101220009BF801210846FFF779FCE404204600F012
:1012300089F804A800F06EFA0021ADF810104FF6FE
:10124000FF72ADF81420ADF81610ADF8121004A915
:10125000204600F011FA02231A460321204600F02E
:1012600079F901A800F0D6F90621ADF80C1001A912
:10127000204600F089F90021204600F0D3F9012131
:10128000204600F053F808B010BD0000000318001D
:101290000002300000080140000C014010B588B089
:1012A00001210920FFF756FC04208DF81F00C02003
:1012B000ADF81C0007A91B48FFF74EF801210420D8
:1012C000FFF72CFC184C204600F03CF804A800F076
:1012D00021FA0021ADF810104FF6FF72ADF814207E
:1012E000ADF81610ADF8121004A9204600F0C4F9AC
:1012F00002231A460321204600F02CF901A800F031
:1013000089F90621ADF80C1001A9204600F03CF93E
:101310000021204600F086F90121204600F006F861
:1013200008B010BD000C014000080040002904D0A6
:10133000018841F0010101807047018821F001011D
:101340000180704710B5734988420AD1C414012145
:101350002046FFF70DFC2046BDE810400021FFF7B6
:1013600007BCB0F1804F0CD06B49884213D10121EA
:101370000220FFF7E1FB0021BDE810400220FFF74B
:10138000DBBB01210846FFF7D7FB0021BDE8104079
:101390000120FFF7D1BB6149884209D10121042016
:1013A000FFF7CAFB0021BDE810400420FFF7C4BBD3
:1013B0005B49884209D101210820FFF7BDFB0021CC
:1013C000BDE810400820FFF7B7BB5649884209D155
:1013D00001211020FFF7B0FB0021BDE810401020D4
:1013E000FFF7AABB5049884209D101212020FFF70D
:1013F000A3FB0021BDE810402020FFF79DBB4B4917
:1014000088420AD1441401212046FFF7B1FB20464F
:10141000BDE810400021FFF7ABBB454988420AD127
:101420000121CC042046FFF7A3FB2046BDE8104075
:101430000021FFF79DBB3F4988420AD101210C05DD
:101440002046FFF795FB2046BDE810400021FFF73E
:101450008FBB394988420AD101214C052046FFF74C
:1014600087FB2046BDE810400021FFF781BB3349D0
:10147000884209D101214020FFF75EFB0021BDE831
:1014800010404020FFF758BB2D49884209D1012167
:101490008020FFF751FB0021BDE810408020FFF7BE
:1014A0004BBB284988420AD1841501212046FFF709
:1014B00043FB2046BDE810400021FFF73DBB224919
:1014C00088420AD101210C042046FFF751FB204637
:1014D000BDE810400021FFF74BBB1C4988420AD1F0
:1014E00001214C042046FFF743FB2046BDE8104095
:1014F0000021FFF73DBB164988420AD101218C0427
:101500002046FFF735FB2046BDE810400021FFF7DD
:101510002FBB10BD002C014000040040000800401B
:10152000000C004000100040001400400034014056
:10153000004C0140005001400054014000180040A0
:10154000001C0040002000400040014000440140D9
:101550000048014070B50589048B068C25F007050D
:101560000D434FF6FC410C4040F201110C4326F0B4
:1015700022064FF6FF7101EA031111433143058141
:101580000483018470BD000070B505460C461D48FB
:10159000854209D01C48854206D0B5F1804F03D062
:1015A0001A48854200D01A4820886188A288238979
:1015B00060B1042813D008281AD02846FFF7BEFDD2
:1015C000E1882846BDE8704000F04AB82846FFF799
:1015D00001FDE1882846BDE8704000F025B82846A6
:1015E000FFF732FDE1882846BDE8704000F024B8DE
:1015F0002846FFF767FDE1882846BDE8704000F007
:1016000027B80000002C01400034014000040040D5
:101610000008004000210180418001228280C180B9
:101620000181704781847047028B22F00C02028393
:10163000028B0A4302837047028B22F440620283CA
:10164000028B4FF6FF7303EA01210A4302837047BE
:10165000828B22F00C028283828B0A438283704742
:10166000828B22F440628283828B4FF6FF7303EAFF
:1016700001210A438283704730B502881B4C1C4D00
:10168000A0420DD0A8420BD0B0F1804F08D0194B2A
:10169000984205D0184B984202D0184B984203D17B
:1016A00022F070034A881A43154B984206D0154B16
:1016B000984203D022F44073CA881A4302808A8871
:1016C00082850A880285A0420AD0A84208D00E4A24
:1016D000904205D00D4A904202D00D4A904201D16D
:1016E000097A01860121818230BD0000002C014071
:1016F000003401400004004000080040000C00409D
:10170000001000400014004000400140004401402F
:10171000004801404FF6FF71818000210180C180A7
:10172000418001727047000070B5164C40F225519F
:10173000204600F02DF800280ED0204600F048F892
:10174000C1B2114A1088030406D444044FF00003C8
:1017500007D50A2901D0138070BD40F400401080E5
:1017600070BD0D290AD0094DC0F30D042955401C48
:1017700080B210807F28F3D9138070BD40F4804080
:10178000108070BD0038014040000020480000205B
:1017900070B5002440F66A12C1F3421301F01F0530
:1017A000012606FA05F2012B0CD0022B0DD0838AFC
:1017B0001340090A8E40008830400BB100B101246B
:1017C000204670BD83891340F3E7038A1340F0E796
:1017D0008088C0F308007047FEE7704710B56FF0CF
:1017E0000400FFF7BFFB094809490068B0FBF1F0AE
:1017F0000849C0B2087000EB4002C2EBC0104FF6BF
:10180000FF7202EAC000488010BD00000400002002
:1018100000127A003C0000200B49498848434FF0F1
:10182000E021486100238B61086940F001000861F4
:101830000869C20701D0C003FAD5086920F0010089
:1018400008618B61704700003C00002010B50D4C12
:1018500020212046FEF702FE01280DD0402120461F
:10186000FEF7FCFD012809D001210748FEF7F6FD2F
:10187000012805D0002010BD012010BD022010BDA0
:10188000032010BD001801400010014010B52A4C83
:1018900004212046FEF7EBFD08212046FEF7E5FD7A
:1018A00010212046FEF7E1FDFFF7D0FF012831D0DF
:1018B000022831D0032831D004212046FEF7D5FD7F
:1018C00008212046FEF7D3FDFFF7C0FF012827D0EF
:1018D000022827D0032827D008212046FEF7C5FD7F
:1018E00010212046FEF7C3FDFFF7B0FF01281DD0F1
:1018F00002281DD003281DD004212046FEF7B5FD87
:1019000008212046FEF7B1FD10212046FEF7ADFD6F
:10191000002010BD012010BD022010BD032010BD0D
:10192000042010BD052010BD062010BD072010BDED
:10193000082010BD092010BD0018014070B50446F4
:10194000FD4EFE4D092CD6E903211BD2DFE804F041
:1019500005070A0D1A1A1A131000002070BD521E36
:10196000F26058E0491E316155E0521CF26052E0CD
:10197000491C31614FE0F2A305220321202000F031
:1019800048FC48E0ED48921C052A0068A0F57A70F2
:1019900041D2DFE802F01F11032D3B00042C02D1DD
:1019A000002900D82860062C35D1002933D82868B2
:1019B000A0F57A7028602EE0042C02D1002900D80E
:1019C0002860062C27D1002925D82868A0F57A7030
:1019D000286020E0042C02D1002900D82860062CC1
:1019E00019D1002917D82868A0F57A70286012E06C
:1019F000042C02D1002900D82860062C0BD1002924
:101A000009D82868A0F57A70286004E0062C02D175
:101A1000002900D82860092C7ED0F1684FF6FF70AD
:101A2000891C052979D2DFE801F0037EF9F7F60079
:101A3000FEF74AFD308AC4A381B20122002000F0E3
:101A4000E8FBC2A306220021102000F0E2FB0021E7
:101A500050202A6800F080FBBEA30622012110203E
:101A600000F0D7FB012150202A6800F075FBB9A3D4
:101A700006220221102000F0CCFB022150202A680F
:101A800000F06AFBB5A306220321102000F0C1FB81
:101A9000032150202A6800F05FFBB0A30622042136
:101AA000102000F0B6FB042150202A6800F054FBFF
:101AB000AAA306220521102000F0ABFB052150202F
:101AC0002A6800F049FB0622A4A31146102000F06A
:101AD000A0FB062150202A6800F03EFB9FA30622AF
:101AE0000721102000F095FB072150202A6800F004
:101AF00033FB9AA306220821102000F08AFB08215C
:101B000050202A6800F028FB94A306220921102007
:101B100000F07FFB092101E020E220E250202A684A
:101B200000F01AFB1DE2FEF7CFFC308A86A381B2DB
:101B30000122002000F06DFB8AA30622002108206C
:101B400000F067FB002150202A6800F005FB87A306
:101B500006220121102000F05CFB012150202A68A0
:101B600000F0FAFA7BA306220221102000F051FBBC
:101B7000022150202A6800F0EFFA78A30622032100
:101B8000102000F046FB032150202A6800F0E4FA00
:101B900072A306220421102000F03BFB04215020F8
:101BA0002A6800F0D9FA6DA306220521102000F062
:101BB00030FB052150202A6800F0CEFA062267A3E8
:101BC0001146102000F025FB062150202A6800F065
:101BD000C3FA62A306220721102000F01AFB072196
:101BE00050202A6800F0B8FA5CA3062208211020D1
:101BF00000F00FFB082150202A6800F0ADFA57A32F
:101C000006220921102000F004FB092150202A6837
:101C100000F0A2FAA5E120E178E0FFE7FEF754FC2E
:101C2000308A49A381B20122002000F0F2FA51A3C8
:101C300006220021102000F0ECFA002150202A6832
:101C400000F08AFA49A306220121102000F0E1FAEF
:101C5000012150202A6800F07FFA3EA306220221CB
:101C6000102000F0D6FA022150202A6800F074FA01
:101C70003AA306220321102000F0CBFA03215020C2
:101C80002A6800F069FA35A306220421102000F02A
:101C9000C0FA042150202A6800F05EFA2FA3062221
:101CA0000521102000F0B5FA052150202A6800F027
:101CB00053FA062229A31146102000F0AAFA0621A1
:101CC00050202A6800F048FA24A306220721102099
:101CD00000F09FFA072150202A6800F03DFA1FA368
:101CE00006220821102000F094FA082150202A68CA
:101CF00000F032FA19A306220921102000F089FA17
:101D0000092150202A6800F027FA2AE1FEF7DCFBBF
:101D1000308A0DA381B20122002000F07AFA17A3C5
:101D200006220021102000F074FA002150202A68B9
:101D300000F012FA0DA325E018000020000000209A
:101D40006672616D650000002D00000070616765BE
:101D5000202D320073706565643100007269676818
:101D60007400000070616765202D310074696D6535
:101D700000000000706167652030000070616765D9
:101D80002031000006220121102000F042FA01213A
:101D900050202A6800F0E0F9AFF248030622022141
:101DA000102000F036FA022150202A6800F0D4F901
:101DB000AFF2580306220321102000F02AFA032173
:101DC00050202A6800F0C8F9AFF2700306220421FF
:101DD000102000F01EFA042150202A6800F0BCF9FF
:101DE000AFF2880306220521102000F012FA052127
:101DF00050202A6800F0B0F9AFF2A0030622114685
:101E0000102000F006FA062150202A6800F0A4F9FC
:101E1000AFF2B80306220721102000F0FAF90721DB
:101E200050202A6800F098F9AFF2D003062208216A
:101E3000102000F0EEF9082150202A6800F08CF9FB
:101E4000AFF2E80306220921102000F0E2F909218F
:101E500050202A6800F080F983E0FEF735FB308AD5
:101E600081B2AFF21C130122002000F0D2F93EA390
:101E700006220021102000F0CCF9002150202A6811
:101E800000F06AF9AFF21C1306220121102000F0C5
:101E9000C0F9012150202A6800F05EF9AFF24C131E
:101EA00006220221102000F0B4F9022150202A68F5
:101EB00000F052F9AFF25C1306220321102000F06B
:101EC000A8F9032150202A6800F046F9AFF27413F4
:101ED00006220421102000F09CF9042150202A68D9
:101EE00000F03AF9AFF28C1306220521102000F021
:101EF00090F9052150202A6800F02EF9AFF2A413C2
:101F000006221146102000F084F9062150202A688C
:101F100000F022F9AFF2BC1306220721102000F0D6
:101F200078F9072150202A6800F016F9AFF2D4138F
:101F300006220821102000F06CF9082150202A68A0
:101F400000F00AF9AFF2EC1306220921102000F08C
:101F500060F9092150202A6800F0FEF801E0FEF740
:101F6000B3FA012070BD0000706167652032000087
:101F700070B56F4D6F4C0126286800286ED16EA396
:101F800006220021102000F044F900215020226890
:101F900000F0E2F86AA306220121102000F039F9CE
:101FA00001215020226800F0D7F867A30622022101
:101FB000102000F02EF902215020226800F0CCF809
:101FC00063A306220321102000F023F903215020EF
:101FD000226800F0C1F85EA306220421102000F060
:101FE00018F904215020226800F0B6F858A3062200
:101FF0000521102000F00DF905215020226800F085
:10200000ABF8062252A31146102000F002F9062177
:102010005020226800F0A0F84DA3062207211020CE
:1020200000F0F7F807215020226800F095F848A347
:1020300006220821102000F0ECF808215020226828
:1020400000F08AF842A306220921102000F0E1F8EE
:1020500009215020226800F07FF82E60FFF716FC5F
:10206000A968491CA960696821B918B16E60FFF7B9
:1020700065FC00E06860E868811C0DD0411C41D01F
:10208000E8B301284CD0022851D12268BDE8704045
:102090000021502000F060B800215020226800F09C
:1020A0005BF801215020226800F056F802215020F0
:1020B000226800F051F803215020226800F04CF80B
:1020C00004215020226800F047F8052150202268A2
:1020D00000F042F806215020226800F03DF8072168
:1020E0005020226800F038F808215020226800F0C3
:1020F00033F82268BDE870400921502000E008E074
:1021000000F02AB82268BDE870400121502000F09C
:1021100023B82268BDE870400121502000F01CB8AF
:102120002268BDE870400021502000F015B870BD55
:10213000180000200000002070616765203000005A
:1021400074696D650000000073706565643100009E
:1021500072696768740000002DE9FF47064614465F
:1021600000274FF6FF704FF4784800EA0115002C65
:1021700009DACDE90087294610232D223046FEF7E3
:10218000CBFB644207E0CDE90087294610232022DB
:102190003046FEF7C1FB42F2107094FBF0F08DF870
:1021A00008004FF47A7094FBF0F10A2091FBF0F2F2
:1021B00000FB12118DF80910642194FBF1F191FBE1
:1021C000F0F200FB12118DF80A1094FBF0F191FB74
:1021D000F0F200FB12118DF80B1094FBF0F100FBF4
:1021E00011408DF80C0000240DF10809CDE900879D
:1021F00019F80400641C3030C2B206EBC400294652
:1022000080B21023FEF788FBE4B2052CEED3BDE8C4
:10221000FF872DE9FC5F04461E4604F0FF084FF6D9
:10222000FF7303EAC20020441FFA80FA102010272F
:102230004FF0000900EB01101FFA80FB03EA0115C3
:1022400012E0544502D34446E81985B25D4510D2E8
:102250000020CDE900903B4629462046FEF75CFB76
:1022600004EB570084B2761C3278A2F120005E287D
:10227000E7D9BDE8FC9F0000FFF7B0FA4FF4A0607B
:10228000FEF740FCFEF722FCFEF7F4F8FEF7DCF95F
:10229000FEF728FDFEF7A2FFFFF700F8064C0A2024
:1022A000FFF7BAFAFEF748FDFEF754FDFFF760FEB0
:1022B0002068401C2060F2E70000002000000000C1
:1022C0000000000000000000000000003F4000008F
:1022D000000000000000300040003000400000001E
:1022E00009000BC03D000BC03D00090018C0244090
:1022F0007FE0224031800000180024C01B000D80C8
:102300003240018003801C4027401C800740004071
:10231000100060000000000000000000000000004D
:1023200000001F80204040200000402020401F80EF
:1023300000000000090006001F80060009000000E0
:10234000040004003F80040004000000001000604E
:10235000000000000000000004000400040004006D
:102360000400000000000040000000000000000029
:10237000002001C006003800400000001F802040FF
:10238000204020401F800000000010403FC000405F
:102390000000000018C021402240244018400000E6
:1023A00010802040244024401B80000002000D00CB
:1023B00011003FC0014000003C80244024402440E4
:1023C000238000001F80244024403440038000000C
:1023D0003000200027C03800200000001B8024406F
:1023E000244024401B8000001C0022C022402240C8
:1023F0001F800000000000000840000000000000F6
:102400000000000004600000000000000000040064
:102410000A0011002080404009000900090009005D
:102420000900000000004040208011000A00040064
:102430001800200023402400180000001F802040C6
:10244000274029401F400000004007C039000F000E
:1024500001C0004020403FC0244024401B800000B9
:102460001F802040204020403080000020403FC09E
:10247000204020401F80000020403FC024402E40CC
:1024800030C0000020403FC024402E00300000003B
:102490000F001080204022403380020020403FC0C7
:1024A000040004003FC02040204020403FC02040A6
:1024B000204000000060202020203FC0200020009D
:1024C00020403FC024400B0030C0204020403FC08F
:1024D00020400040004000C03FC03C0003C03C0022
:1024E0003FC0000020403FC00C4023003FC0200000
:1024F0001F802040204020401F80000020403FC01F
:1025000024402400180000001F802140214020E0CA
:102510001FA0000020403FC02440260019C00040FA
:1025200018C0244024402240318000003000204068
:102530003FC020403000000020003F8000400040AD
:102540003F80200020003E0001C00700380020002E
:10255000380007C03C0007C038000000204039C0E8
:10256000060039C0204000002000384007C0384035
:1025700020000000304021C02640384020C000002C
:10258000000000007FE040204020000000007000BC
:102590000C000380004000000000402040207FE04D
:1025A00000000000000020004000200000000000AB
:1025B00000100010001000100010001000000000BB
:1025C00040000000000000000000028005400540BF
:1025D00003C0004020003FC00440044003800000CE
:1025E0000000038004400440064000000000038017
:1025F000044024403FC000400000038005400540E7
:1026000003400000000004401FC02440244020007C
:10261000000002E0055005500650042020403FC055
:102620000440040003C000400000044027C00040F4
:102630000000000000100010041027E0000000005F
:1026400020403FC00140070004C00440204020401B
:102650003FC000400040000007C0040007C0040065
:1026600003C00000044007C00440040003C0004051
:10267000000003800440044003800000041007F0C1
:102680000450044003800000000003800440045014
:1026900007F00010044007C00240040004000000DE
:1026A000000006400540054004C000000000040092
:1026B0001F800440004000000400078000400440E8
:1026C00007C000400400070004C0018006000400A9
:1026D000060001C0070001C006000000044006C05B
:1026E000010006C0044000000410071004E001804F
:1026F000060004000000044005C00640044000003D
:102700000000000004007BE040200000000000000A
:102710000000FFF000000000000040207BE004000B
:102720000000000040008000400020002000400029
:102730000000000000000000000000000000000099
:102740000000000000001FCC000C00000000000092
:102750000000080030006000080030006000000049
:10276000022003FC1E20022003FC1E200220000089
:1027700000000E1811043FFF10840C7800000000C8
:102780000F0010840F3800C007781884007800000C
:1027900000780F8410C411240E9800E4008400080F
:1027A0000800680070000000000000000000000049
:1027B00000000000000007E018182004400200009C
:1027C000000040022004181807E00000000000008C
:1027D0000240024001800FF00180024002400000F0
:1027E0000080008000800FF80080008000800000E2
:1027F0000001000D000E00000000000000000000BD
:102800000000008000800080008000800080008048
:102810000000000C000C00000000000000000000A0
:10282000000000060018006001800600180020006B
:10283000000007F0080810041004080807F0000062
:102840000000080408041FFC00040004000000004D
:1028500000000E0C10141024104411840E0C000003
:1028600000000C1810041104110412880C700000F0
:10287000000000E00320042408241FFC00240000C2
:1028800000001F98108411041104108810700000BB
:10289000000007F008881104110418880070000077
:1028A00000001C00100010FC13001C0010000000B1
:1028B00000000E3811441084108411440E380000BA
:1028C00000000700088C10441044088807F000003E
:1028D000000000000000030C030C000000000000DA
:1028E00000000000000101060000000000000000E0
:1028F00000000080014002200410080810040000BD
:1029000002200220022002200220022002200000D9
:10291000000010040808041002200140008000009C
:1029200000000E001200100C106C10800F00000050
:1029300003E00C1813E4142417C4082807D000007F
:102940000004003C03C41C40074000E4001C0004D9
:1029500010041FFC1104110411040E880070000003
:1029600003E00C1810041004100410081C100000E0
:1029700010041FFC100410041004080807F00000E5
:1029800010041FFC1104110417C4100408180000DF
:1029900010041FFC1104110017C0100008000000F3
:1029A00003E00C181004100410441C7800400000D0
:1029B00010041FFC10840080008010841FFC100491
:1029C0000000100410041FFC10041004000000009C
:1029D00000030001100110011FFE10001000000094
:1029E00010041FFC110403801464181C1004000060
:1029F00010041FFC1004000400040004000C00007C
:102A000010041FFC1F0000FC1F001FFC100400002E
:102A100010041FFC0C04030000E010181FFC100041
:102A200007F00808100410041004080807F000005C
:102A300010041FFC10841080108010800F00000014
:102A400007F0081810241024101C080A07F20000D0
:102A500010041FFC1104110011C011300E0C0004F1
:102A600000000E1C11041084108410441C38000057
:102A70001800100010041FFC1004100018000000C3
:102A800010001FF810040004000410041FF81000C8
:102A900010001E0011E0001C007013801C001000CC
:102AA0001FC0103C00E01F0000E0103C1FC00000F1
:102AB0001004180C163401C001C01634180C100490
:102AC00010001C00130400FC13041C001000000084
:102AD0000804101C1064108413041C041018000057
:102AE0000000000000007FFE4002400240020000A3
:102AF000000030000C0003800060001C0003000098
:102B000000004002400240027FFE00000000000082
:102B100000000000200040004000400020000000B5
:102B2000000100010001000100010001000100019D
:102B300000004000400020000000000000000000F5
:102B400000000098012401440144014400FC0004F9
:102B500010001FFC008801040104008800700000C0
:102B600000000070008801040104010400880000D6
:102B70000000007000880104010411081FFC00041B
:102B8000000000F8014401440144014400C8000071
:102B90000000010401040FFC1104110411001800CD
:102BA000000000D601290129012901C90106000000
:102BB00010041FFC008401000100010400FC00045B
:102BC00000000104190419FC0004000400000000C6
:102BD0000000000300010101190119FE00000000BE
:102BE00010041FFC0024004001B4010C010400008B
:102BF0000000100410041FFC00040004000000008A
:102C0000010401FC0104010001FC0104010000FCBD
:102C1000010401FC008401000100010400FC000427
:102C2000000000F8010401040104010400F80000A0
:102C3000010101FF0085010401040088007000000B
:102C400000000070008801040104010501FF00017B
:102C50000104010401FC0084010401000180000062
:102C6000000000CC0124012401240124019800006B
:102C700000000100010007F8010401040000000049
:102C8000010001F8000400040004010801FC000434
:102C9000010001800170000C001001600180010042
:102CA00001F0010C003001C00030010C01F0010006
:102CB00000000104018C00740170018C010400000B
:102CC000010101810171000E001801600180010005
:102CD00000000184010C013401440184010C000056
:102CE000000000000000000001003EFC4002400225
:102CF0000000000000000000FFFF000000000000D6
:102D00000000400240023EFC010000000000000004
:102D10000000600080008000400040002000200093
:102D200000000000000000000000000000000000A3
:102D30000000000000000000000000000000000093
:102D40000000000000000000000000000000000083
:102D50000000000F80380FFE380F803800000000A0
:102D60000000000000000000000000000000010062
:102D7000000600000C0000380000310000060000D2
:102D80000C000038000030000000000000000000CF
:102D900061800067F807F980006180006180006150
:102DA000800061800067F807F98000618000000002
:102DB00000000000000001C0E003E0F0063008045D
:102DC00018081FFFFE040E080787F00381E00000CB
:102DD0000000000001F000060C00040408060C705E
:102DE00001F9C0000E00003BE000EC1807080804E1
:102DF0000C180003E00000000001E00007F003F8F9
:102E000018041C0804170807E1D003C0E00023B031
:102E1000003C080020080000100000000000000135
:102E200000003100003200001C0000000000000023
:102E30000000000000000000000000000000000092
:102E40000000000000000000000000000000000082
:102E50007F0001FFC00780F00C0018100004200064
:102E6000020000000000002000021000040C001806
:102E70000780F001FFC0007F00000000000000009C
:102E8000000000000000000000000000420000669A
:102E900000006600003C0000180003FFC00018009E
:102EA000003C0000660000660000420000000000D8
:102EB000080000080000080000080000080001FFEA
:102EC000C00008000008000008000008000008001A
:102ED00000000000000100003100003200001C0072
:102EE00000000000000000000000000000000000E2
:102EF00000000000000000000800000800000800BA
:102F00000008000008000008000008000008000099
:102F100008000008000000000000000000000000A1
:102F200038000038000038000000000000000000F9
:102F30000000000000000000000000000000000091
:102F4000000600001C000070000180000E00003828
:102F50000000C0000700001C00003000000000005E
:102F6000000000007F8001FFE0038070060018046D
:102F7000000804000806001803807001FFE0007FCD
:102F800080000000000000000000010008010008AF
:102F900001000803FFF807FFF80000080000080020
:102FA000000800000000000000000001C03802C05E
:102FB00058040098040118040218040418061C1888
:102FC00003F81801E0F80000000000000000000114
:102FD000C0E003C0F004000804080804080806184C
:102FE0000803F41801E7F00001E000000000000011
:102FF000000000000300000D00001100006100004F
:10300000810803010807FFF80FFFF800010800011D
:10301000080000000000000000E007FCD0060808DF
:10302000061008061008061008061838060FF006E5
:1030300007C0000000000000000000003F8001FF0A
:10304000E003843002081804100804100804100873
:10305000071810030FF00007C00000000000000078
:10306000000003C0000700000600000600F8060785
:10307000F806180006E00007000006000000000047
:1030800000000001E1E003F7F00634100418080422
:103090001808040C08040C0806161803F3F001C104
:1030A000E000000000000000F80003FC30030638D8
:1030B0000402080402080402080404100308F001D2
:1030C000FFC0007F000000000000000000000000C2
:1030D00000000000000000007038007038007038F8
:1030E00000000000000000000000000000000000E0
:1030F000000000000000000000000000301A003056
:103100001C000000000000000000000000000000A3
:103110000000000000000008000014000022000071
:1031200041000080800100400200200400100800DF
:103130000800000000000000210000210000210024
:1031400000210000210000210000210000210000DA
:103150002100002100000000000000000000080025
:10316000080400100200200100400080800041009F
:10317000002200001400000800000000000000030E
:10318000C00004C000040000080038080F38080818
:10319000380810000C300007E00003C000000000F9
:1031A000000000003F8000FFE0038070020F100667
:1031B000708804C088048308047F8802C0900301DB
:1031C0002000FE400000080000180001F8003E0842
:1031D00001C20007020007E20000FE00001FC80055
:1031E00001F800003800000804000807FFF807FF96
:1031F000F804080804080804080804080806180861
:1032000003F41801E7F00001E000000000000000F6
:103210003F8001FFE00380700200180400080400F2
:10322000080400080400100600200780C000000009
:1032300004000807FFF807FFF8040008040008046A
:10324000000804001802001003807001FFE0007FF6
:103250008000000004000807FFF807FFF8040808D2
:10326000040808040808040808043E0804000806C6
:10327000001801006000000004000807FFF807FFC5
:10328000F8040808040800040800040800043E00CC
:1032900006000006000001800000000000000000A1
:1032A0003F8001FFE003807006001804000804025C
:1032B000080402080203F00783F000020000020085
:1032C00004000807FFF807FFF804080800080000DA
:1032D000080000080000080004080807FFF807FFBE
:1032E000F8040008000000000000040008040008C2
:1032F00004000807FFF807FFF804000804000804AA
:1033000000080000000000000000000000060000AF
:103310000700000104000104000104000307FFFE90
:1033200007FFFC040000040000040000040008077C
:10333000FFF807FFF8040C08001800003E0004C75F
:10334000800503C80600F8040038040018000008CF
:1033500004000807FFF807FFF80400080000080051
:103360000008000008000008000008000018000025
:103370006000000004000807FFF807800807FC0051
:10338000007FC00003F80007C0007800078008072E
:10339000FFF807FFF804000804000807FFF807001B
:1033A0000803C00000E000003800001E0000070015
:1033B0000001C00400F007FFF80400000000000056
:1033C0007F8001FFE00380700600180400080400FD
:1033D0000806001803003001FFE0007F80000000B5
:1033E00004000807FFF807FFF804040804040004B9
:1033F0000400040400040400060C0003F80001F0BB
:1034000000000000000000007F8001FFE0038070EA
:103410000600880400880400C806003C03003E0142
:10342000FFE6007F8400000004000807FFF807FFA4
:10343000F8040808040800040C00040F00040BC082
:103440000610F003F03801E0080000080000000159
:10345000E0F803F030063010041808041808040CD3
:1034600008040C080206180207F00781E0000000BB
:1034700001800006000004000004000004000807AA
:10348000FFF807FFF804000804000004000006002D
:103490000001800004000007FFE007FFF0040018AF
:1034A00000000800000800000800000800000804F0
:1034B000001007FFE004000004000006000007E021
:1034C0000007FE00041FE00001F80000380001E0E2
:1034D000043E0007C00006000004000004000007CE
:1034E000E00007FFC0041FF80007C007F80007FF4F
:1034F00080043FF80007C004F80007000004000043
:1035000000000004000806001807C07805F1C80094
:103510003E00001F800463E80780F80600180400DE
:103520000800000004000006000007800007E00813
:10353000047C08001FF80007F800180804E00807DA
:103540000000060000040000000000010008060062
:10355000380400F80403E8040F08047C0805F008A8
:1035600007C0080700180400600000000000000009
:1035700000000000000000000000003FFFFE2000EF
:1035800002200002200002200002200002000000B1
:1035900000000000000008000007000000C000005C
:1035A00038000006000001C000003000000E0000DE
:1035B00001000000000000000000200002200002C6
:1035C0002000022000022000023FFFFE0000000059
:1035D00000000000000000000000000000000000EB
:1035E0000008000010000030000020000030000043
:1035F00010000008000000000000000000000100B2
:1036000000010000010000010000010000010000B5
:1036100001000001000001000001000001000001A4
:10362000000000000000000000200000200000104A
:10363000000010000000000000000000000000007A
:10364000000000000000000000F00019F8001B1846
:10365000002208002608002408002410003FF8007B
:103660001FF800000800001800000004000007FF19
:10367000F80FFFF0001818001008002008002008BC
:10368000003018001FF0000FC00000000000000014
:1036900007C0001FF000183000200800200800209C
:1036A00008003C08001C1000006000000000000042
:1036B0000000000007C0001FF000381800200800BC
:1036C000200800200804101007FFF80FFFF000008A
:1036D000100000000000000000000007C0001FF004
:1036E00000123000221800220800220800320800D0
:1036F0001E10000E2000000000000000200000202E
:103700000800200801FFF803FFF80620080420083D
:103710000420080720000300000000000000000053
:10372000000E000E6E001FF30031B10020B100202A
:10373000B1003191001F13002E1E00200E0030003A
:1037400000000004000807FFF80FFFF80010080051
:103750002000002000002008003FF8001FF80000B3
:103760000800000000000000000000200800200801
:10377000002008063FF8063FF80000080000080097
:103780000008000000000000000000000000000031
:1037900003000003002001002001002003063FFE7B
:1037A000063FFC00000000000000000000000004D4
:1037B000000807FFF80FFFF8000188000300002F42
:1037C000C00038F800203800200800000800000081
:1037D00000000000000004000804000804000807BE
:1037E000FFF80FFFF80000080000080000080000C4
:1037F00000000000002008003FF8003FF80010081B
:10380000002000003FF8003FF800100800200000F2
:103810003FF8003FF8000008000000002008003FCB
:10382000F8003FF8001008001000002000002008F9
:10383000003FF8001FF80000080000000000000032
:1038400007C0000FF00018300030080020080020EA
:1038500008003008001830000FF00007C00000001A
:10386000000000002001003FFF003FFF001011009A
:103870002009002008002008003038001FF0000F49
:10388000C00000000000000007C0001FF000381852
:10389000002008002008002009001011001FFF0070
:1038A0003FFF000001000000002008002008002069
:1038B00008003FF8003FF800080800100800200842
:1038C0000020000030000030000000000000000078
:1038D0000000000C78001E180033080023080021A7
:1038E000080021880021980030F0003860000000B6
:1038F00000000000200000200000200000FFF00376
:10390000FFF8002008002008002008000030000018
:1039100000000000000000002000003FF0007FF8E1
:10392000000018000008000008002010003FF80008
:103930007FF00000100000000000000020000030B8
:1039400000003C00003F800023F000007800007081
:10395000002380003C000030000020000020000018
:103960003C00003FE00023F80000E0002700003E9C
:1039700000003FE00021F80001E0003E00002000D0
:10398000000000002008002008003838003E6800D1
:1039900027800003C8002CF80038380020180020C9
:1039A00008000000000000002000003003003C017F
:1039B000003F830023EC000070002380003C0000E7
:1039C000200000200000000000000000000000387F
:1039D000080020380020F80023E8002F88003E0867
:1039E00000380800201800007000000000000000EF
:1039F00000000000000000000000000008000014AB
:103A0000001FF7FC3000062000020000000000004C
:103A100000000000000000000000000000000000A6
:103A20000000FFFFFF000000000000000000000099
:103A3000000000000000000000002000023000062E
:103A40001FF7FC0014000008000000000000000048
:103A500000000000000000000000001800006000EE
:103A6000004000004000002000001000000800009E
:103A70000400000400000C00001000009C3A000844
:103A800000000020480000006C010008E43A000833
:103A900048000020F0060000880100080000000037
:103AA00000A24A040000000000000000010203041C
:103AB00006070809000000000000000000000000E8
:103AC00000000000000000000000000000000000F6
:103AD00000000000000000000000000000000000E6
:043AE0000000FFFFE4
:04000005080001CD21
:00000001FF
